{
  "contractName": "JetLife",
  "abi": [
    {
      "inputs": [],
      "stateMutability": "nonpayable",
      "type": "constructor"
    },
    {
      "inputs": [
        {
          "internalType": "uint256",
          "name": "",
          "type": "uint256"
        }
      ],
      "name": "flight",
      "outputs": [
        {
          "internalType": "string",
          "name": "carrier",
          "type": "string"
        },
        {
          "internalType": "uint256",
          "name": "flightTime",
          "type": "uint256"
        }
      ],
      "stateMutability": "view",
      "type": "function",
      "constant": true
    },
    {
      "inputs": [],
      "name": "flightTicket",
      "outputs": [
        {
          "internalType": "uint256",
          "name": "",
          "type": "uint256"
        }
      ],
      "stateMutability": "view",
      "type": "function",
      "constant": true
    },
    {
      "inputs": [],
      "name": "owner",
      "outputs": [
        {
          "internalType": "address payable",
          "name": "",
          "type": "address"
        }
      ],
      "stateMutability": "view",
      "type": "function",
      "constant": true
    },
    {
      "inputs": [
        {
          "internalType": "uint256",
          "name": "",
          "type": "uint256"
        }
      ],
      "name": "setting",
      "outputs": [
        {
          "internalType": "string",
          "name": "setNumber",
          "type": "string"
        },
        {
          "internalType": "string",
          "name": "row",
          "type": "string"
        }
      ],
      "stateMutability": "view",
      "type": "function",
      "constant": true
    },
    {
      "inputs": [
        {
          "internalType": "uint256",
          "name": "",
          "type": "uint256"
        }
      ],
      "name": "territory",
      "outputs": [
        {
          "internalType": "string",
          "name": "region",
          "type": "string"
        },
        {
          "internalType": "string",
          "name": "country",
          "type": "string"
        },
        {
          "internalType": "bool",
          "name": "insurance",
          "type": "bool"
        }
      ],
      "stateMutability": "view",
      "type": "function",
      "constant": true
    },
    {
      "inputs": [
        {
          "internalType": "uint256",
          "name": "_id",
          "type": "uint256"
        },
        {
          "internalType": "string",
          "name": "_carrier",
          "type": "string"
        },
        {
          "internalType": "uint256",
          "name": "_flightTime",
          "type": "uint256"
        }
      ],
      "name": "chooseFlight",
      "outputs": [],
      "stateMutability": "nonpayable",
      "type": "function"
    },
    {
      "inputs": [
        {
          "internalType": "uint256",
          "name": "_id",
          "type": "uint256"
        },
        {
          "internalType": "string",
          "name": "_region",
          "type": "string"
        },
        {
          "internalType": "string",
          "name": "_country",
          "type": "string"
        },
        {
          "internalType": "bool",
          "name": "_insurance",
          "type": "bool"
        }
      ],
      "name": "flightDesinstion",
      "outputs": [],
      "stateMutability": "nonpayable",
      "type": "function"
    },
    {
      "inputs": [
        {
          "internalType": "uint256",
          "name": "_id",
          "type": "uint256"
        },
        {
          "internalType": "string",
          "name": "_setNumber",
          "type": "string"
        },
        {
          "internalType": "string",
          "name": "_row",
          "type": "string"
        }
      ],
      "name": "sittingArrangement",
      "outputs": [],
      "stateMutability": "nonpayable",
      "type": "function"
    },
    {
      "inputs": [],
      "name": "payment",
      "outputs": [],
      "stateMutability": "payable",
      "type": "function",
      "payable": true
    }
  ],
  "bytecode": "0x608060405234801561001057600080fd5b5033600060016101000a81548173ffffffffffffffffffffffffffffffffffffffff021916908373ffffffffffffffffffffffffffffffffffffffff1602179055506729a2241af62c0000600181905550610e94806100706000396000f3fe6080604052600436106100865760003560e01c80634df4d7b7116100595780634df4d7b7146103ba5780638da5cb5b146103e5578063e3c9969114610426578063e8bb085a146104e1578063fdeb1a211461065657610086565b80632c9947471461008b57806342f6487a146101675780634a34e3a3146101715780634c975e0814610291575b600080fd5b34801561009757600080fd5b50610165600480360360608110156100ae57600080fd5b8101908080359060200190929190803590602001906401000000008111156100d557600080fd5b8201836020820111156100e757600080fd5b8035906020019184600183028401116401000000008311171561010957600080fd5b91908080601f016020809104026020016040519081016040528093929190818152602001838380828437600081840152601f19601f820116905080830192505050505050509192919290803590602001909291905050506107bf565b005b61016f610816565b005b34801561017d57600080fd5b506101aa6004803603602081101561019457600080fd5b8101908080359060200190929190505050610901565b604051808060200180602001838103835285818151815260200191508051906020019080838360005b838110156101ee5780820151818401526020810190506101d3565b50505050905090810190601f16801561021b5780820380516001836020036101000a031916815260200191505b50838103825284818151815260200191508051906020019080838360005b83811015610254578082015181840152602081019050610239565b50505050905090810190601f1680156102815780820380516001836020036101000a031916815260200191505b5094505050505060405180910390f35b34801561029d57600080fd5b506102ca600480360360208110156102b457600080fd5b8101908080359060200190929190505050610a55565b6040518080602001806020018415158152602001838103835286818151815260200191508051906020019080838360005b838110156103165780820151818401526020810190506102fb565b50505050905090810190601f1680156103435780820380516001836020036101000a031916815260200191505b50838103825285818151815260200191508051906020019080838360005b8381101561037c578082015181840152602081019050610361565b50505050905090810190601f1680156103a95780820380516001836020036101000a031916815260200191505b509550505050505060405180910390f35b3480156103c657600080fd5b506103cf610bbc565b6040518082815260200191505060405180910390f35b3480156103f157600080fd5b506103fa610bc2565b604051808273ffffffffffffffffffffffffffffffffffffffff16815260200191505060405180910390f35b34801561043257600080fd5b5061045f6004803603602081101561044957600080fd5b8101908080359060200190929190505050610be8565b6040518080602001838152602001828103825284818151815260200191508051906020019080838360005b838110156104a557808201518184015260208101905061048a565b50505050905090810190601f1680156104d25780820380516001836020036101000a031916815260200191505b50935050505060405180910390f35b3480156104ed57600080fd5b506106546004803603608081101561050457600080fd5b81019080803590602001909291908035906020019064010000000081111561052b57600080fd5b82018360208201111561053d57600080fd5b8035906020019184600183028401116401000000008311171561055f57600080fd5b91908080601f016020809104026020016040519081016040528093929190818152602001838380828437600081840152601f19601f820116905080830192505050505050509192919290803590602001906401000000008111156105c257600080fd5b8201836020820111156105d457600080fd5b803590602001918460018302840111640100000000831117156105f657600080fd5b91908080601f016020809104026020016040519081016040528093929190818152602001838380828437600081840152601f19601f820116905080830192505050505050509192919290803515159060200190929190505050610ca4565b005b34801561066257600080fd5b506107bd6004803603606081101561067957600080fd5b8101908080359060200190929190803590602001906401000000008111156106a057600080fd5b8201836020820111156106b257600080fd5b803590602001918460018302840111640100000000831117156106d457600080fd5b91908080601f016020809104026020016040519081016040528093929190818152602001838380828437600081840152601f19601f8201169050808301925050505050505091929192908035906020019064010000000081111561073757600080fd5b82018360208201111561074957600080fd5b8035906020019184600183028401116401000000008311171561076b57600080fd5b91908080601f016020809104026020016040519081016040528093929190818152602001838380828437600081840152601f19601f820116905080830192505050505050509192919290505050610d57565b005b604051806040016040528083815260200182815250600260008581526020019081526020016000206000820151816000019080519060200190610803929190610dc1565b5060208201518160010155905050505050565b6729a2241af62c00006001541015610896576040517f08c379a000000000000000000000000000000000000000000000000000000000815260040180806020018281038252601e8152602001807f4d75737420706179207469636b657420707269636520696e2066756c6c2e000081525060200191505060405180910390fd5b600060019054906101000a900473ffffffffffffffffffffffffffffffffffffffff1673ffffffffffffffffffffffffffffffffffffffff166108fc349081150290604051600060405180830381858888f193505050501580156108fe573d6000803e3d6000fd5b50565b6004602052806000526040600020600091509050806000018054600181600116156101000203166002900480601f0160208091040260200160405190810160405280929190818152602001828054600181600116156101000203166002900480156109ad5780601f10610982576101008083540402835291602001916109ad565b820191906000526020600020905b81548152906001019060200180831161099057829003601f168201915b505050505090806001018054600181600116156101000203166002900480601f016020809104026020016040519081016040528092919081815260200182805460018160011615610100020316600290048015610a4b5780601f10610a2057610100808354040283529160200191610a4b565b820191906000526020600020905b815481529060010190602001808311610a2e57829003601f168201915b5050505050905082565b6003602052806000526040600020600091509050806000018054600181600116156101000203166002900480601f016020809104026020016040519081016040528092919081815260200182805460018160011615610100020316600290048015610b015780601f10610ad657610100808354040283529160200191610b01565b820191906000526020600020905b815481529060010190602001808311610ae457829003601f168201915b505050505090806001018054600181600116156101000203166002900480601f016020809104026020016040519081016040528092919081815260200182805460018160011615610100020316600290048015610b9f5780601f10610b7457610100808354040283529160200191610b9f565b820191906000526020600020905b815481529060010190602001808311610b8257829003601f168201915b5050505050908060020160009054906101000a900460ff16905083565b60015481565b600060019054906101000a900473ffffffffffffffffffffffffffffffffffffffff1681565b6002602052806000526040600020600091509050806000018054600181600116156101000203166002900480601f016020809104026020016040519081016040528092919081815260200182805460018160011615610100020316600290048015610c945780601f10610c6957610100808354040283529160200191610c94565b820191906000526020600020905b815481529060010190602001808311610c7757829003601f168201915b5050505050908060010154905082565b6040518060600160405280848152602001838152602001821515815250600360008681526020019081526020016000206000820151816000019080519060200190610cf0929190610dc1565b506020820151816001019080519060200190610d0d929190610dc1565b5060408201518160020160006101000a81548160ff02191690831515021790555090505060011515600960009054906101000a900460ff16151514610d5157600080fd5b50505050565b604051806040016040528083815260200182815250600460008581526020019081526020016000206000820151816000019080519060200190610d9b929190610dc1565b506020820151816001019080519060200190610db8929190610dc1565b50905050505050565b828054600181600116156101000203166002900490600052602060002090601f016020900481019282601f10610e0257805160ff1916838001178555610e30565b82800160010185558215610e30579182015b82811115610e2f578251825591602001919060010190610e14565b5b509050610e3d9190610e41565b5090565b5b80821115610e5a576000816000905550600101610e42565b509056fea2646970667358221220e71f73f05a468f7c3104fae2cd9862aa5f6ccfced1726cf7d6ad9d9a342a113264736f6c63430007030033",
  "immutableReferences": {},
  "source": "pragma solidity ^0.7.3;\r\n\r\ncontract JetLife{\r\n\r\n    enum destination {domestic,international}\r\n    destination insuranceFee;\r\n\r\n    address payable public owner;\r\n    \r\n    uint public flightTicket;\r\n    \r\n\r\n    mapping(uint=> airlineService)public flight;\r\n    mapping(uint=> finalDestination)public territory;\r\n    mapping(uint=> set)public setting;\r\n    \r\n      string carrier;\r\n        uint flightTime;\r\n        string region;\r\n        string country;\r\n        bool insurance;\r\n        string setNumber;\r\n        string row;\r\n\r\n\r\n    constructor() public{\r\n            \r\n        owner= msg.sender;\r\n        \r\n        flightTicket= 3 ether;\r\n        \r\n    }\r\n\r\n    struct airlineService{\r\n        string carrier;\r\n        uint flightTime;\r\n\r\n    }\r\n\r\n    struct finalDestination{\r\n        string region;\r\n        string country;\r\n        bool insurance;\r\n\r\n    }\r\n\r\n    struct set{\r\n        string setNumber;\r\n        string row;\r\n\r\n    }\r\n\r\n\r\n    function chooseFlight(uint _id, string memory _carrier, uint  _flightTime) public{\r\n        flight[_id]= airlineService(_carrier, _flightTime);\r\n\r\n    }\r\n    \r\n    function flightDesinstion(uint _id, string memory _region , string memory _country, bool  _insurance) public{\r\n        territory[_id]= finalDestination(_region, _country, _insurance);\r\n        require(insurance == true);\r\n    }\r\n\r\n    function sittingArrangement(uint _id, string memory _setNumber, string memory _row) public{\r\n        setting[_id]= set(_setNumber, _row);\r\n\r\n    }\r\n\r\n    function payment()  payable public{\r\n        require(flightTicket >= 3 ether,\"Must pay ticket price in full.\");\r\n        owner.transfer(msg.value);\r\n    }\r\n}",
  "sourcePath": "C:/Users/jeffrey/JetLife/contracts/Jetlife.sol",
  "compiler": {
    "name": "solc",
    "version": "0.7.3+commit.9bfce1f6.Emscripten.clang"
  },
  "schemaVersion": "3.3.3",
  "updatedAt": "2021-03-24T00:28:40.185Z",
  "networkType": "ethereum",
  "devdoc": {
    "kind": "dev",
    "methods": {},
    "version": 1
  },
  "userdoc": {
    "kind": "user",
    "methods": {},
    "version": 1
  }
}